{
  "_format": "hh3-artifact-1",
  "contractName": "RafikNS",
  "sourceName": "contracts/RafikNS.sol",
  "abi": [
    {
      "anonymous": false,
      "inputs": [
        {
          "indexed": false,
          "internalType": "string",
          "name": "username",
          "type": "string"
        },
        {
          "indexed": false,
          "internalType": "address",
          "name": "userAddress",
          "type": "address"
        },
        {
          "indexed": false,
          "internalType": "string",
          "name": "imageURL",
          "type": "string"
        }
      ],
      "name": "CreatedName",
      "type": "event"
    },
    {
      "anonymous": false,
      "inputs": [
        {
          "indexed": false,
          "internalType": "string",
          "name": "sender",
          "type": "string"
        },
        {
          "indexed": false,
          "internalType": "string",
          "name": "reciever",
          "type": "string"
        },
        {
          "indexed": false,
          "internalType": "string",
          "name": "messageContent",
          "type": "string"
        }
      ],
      "name": "Messaging",
      "type": "event"
    },
    {
      "inputs": [],
      "name": "counter",
      "outputs": [
        {
          "internalType": "uint256",
          "name": "",
          "type": "uint256"
        }
      ],
      "stateMutability": "view",
      "type": "function"
    },
    {
      "inputs": [
        {
          "internalType": "string",
          "name": "name",
          "type": "string"
        },
        {
          "internalType": "string",
          "name": "image",
          "type": "string"
        }
      ],
      "name": "createName",
      "outputs": [],
      "stateMutability": "nonpayable",
      "type": "function"
    },
    {
      "inputs": [
        {
          "internalType": "string",
          "name": "name",
          "type": "string"
        }
      ],
      "name": "getInbox",
      "outputs": [
        {
          "components": [
            {
              "internalType": "uint256",
              "name": "id",
              "type": "uint256"
            },
            {
              "internalType": "string",
              "name": "sender",
              "type": "string"
            },
            {
              "internalType": "string",
              "name": "reciever",
              "type": "string"
            },
            {
              "internalType": "string",
              "name": "content",
              "type": "string"
            }
          ],
          "internalType": "struct RafikNS.Message[]",
          "name": "",
          "type": "tuple[]"
        }
      ],
      "stateMutability": "view",
      "type": "function"
    },
    {
      "inputs": [
        {
          "internalType": "string",
          "name": "name",
          "type": "string"
        }
      ],
      "name": "isAvailableName",
      "outputs": [
        {
          "internalType": "bool",
          "name": "",
          "type": "bool"
        }
      ],
      "stateMutability": "view",
      "type": "function"
    },
    {
      "inputs": [
        {
          "internalType": "string",
          "name": "sender",
          "type": "string"
        },
        {
          "internalType": "string",
          "name": "messageReciever",
          "type": "string"
        },
        {
          "internalType": "string",
          "name": "content",
          "type": "string"
        }
      ],
      "name": "message",
      "outputs": [],
      "stateMutability": "nonpayable",
      "type": "function"
    }
  ],
  "bytecode": "0x608080604052346019575f600355610b7c908161001e8239f35b5f80fdfe60806040526004361015610011575f80fd5b5f3560e01c8063138977fd1461074057806316c44ee11461026b57806328a1f972146100d357806361bc221a146100b657637d33589a14610050575f80fd5b346100b25760203660031901126100b2576004356001600160401b0381116100b25761008260209136906004016109f5565b8160405191805191829101835e600190820190815281900382019020546040516001600160a01b03909116158152f35b5f80fd5b346100b2575f3660031901126100b2576020600354604051908152f35b346100b25760203660031901126100b2576004356001600160401b0381116100b2576020610106819236906004016109f5565b604051928184925191829101835e810160028152030190208054906001600160401b038211610257576040519161014360208260051b01846109d4565b8083526020830180925f5260205f205f915b83831061020157848660405191829160208301906020845251809152604083019060408160051b85010192915f905b82821061019357505050500390f35b919360019193955060206101f18192603f198a82030186528851908151815260606101e06101ce868501516080888601526080850190610a4a565b60408501518482036040860152610a4a565b920151906060818403910152610a4a565b9601920192018594939192610184565b60046020600192604051610214816109b9565b85548152610223858701610aa6565b8382015261023360028701610aa6565b604082015261024460038701610aa6565b6060820152815201920192019190610155565b634e487b7160e01b5f52604160045260245ffd5b346100b25760603660031901126100b2576004356001600160401b0381116100b25761029b9036906004016109f5565b6024356001600160401b0381116100b2576102ba9036906004016109f5565b6044356001600160401b0381116100b2576102d99036906004016109f5565b906003546001810180911161072c5780600355604051602081865180838901835e810160028152030190209060405190610312826109b9565b81526020810185815260408201908482526060830193868552805490680100000000000000008210156102575760018201808255821015610718575f5260205f209060021b01925183556001830190518051906001600160401b03821161025757819061037f8454610a6e565b601f81116106c8575b50602090601f8311600114610665575f9261065a575b50508160011b915f199060031b1c19161790555b51805160028301916001600160401b038211610257576103d28354610a6e565b601f8111610615575b50602090601f83116001146105af576003949392915f91836105a4575b50508160011b915f1990861b1c19161790555b0190518051906001600160401b038211610257576104298354610a6e565b601f811161055f575b50602090601f83116001146104ce57936104be93836104a297946104b0947f913470671f636912088e308bf55d413ba1d8057438c8024569d71414c5df9aa79a985f926104c3575b50508160011b915f199060031b1c19161790555b604051958695606087526060870190610a4a565b908582036020870152610a4a565b908382036040850152610a4a565b0390a1005b015190508a8061047a565b90601f19831691845f52815f20925f5b8181106105475750846104b0947f913470671f636912088e308bf55d413ba1d8057438c8024569d71414c5df9aa79a98946104be98946104a29b986001951061052f575b505050811b01905561048e565b01515f1960f88460031b161c191690558a8080610522565b929360206001819287860151815501950193016104de565b835f5260205f20601f840160051c8101916020851061059a575b601f0160051c01905b81811061058f5750610432565b5f8155600101610582565b9091508190610579565b0151905089806103f8565b90601f19831691845f52815f20925f5b8181106105fd5750916001939185600398979694106105e6575b505050811b01905561040b565b01515f1983881b60f8161c191690558980806105d9565b929360206001819287860151815501950193016105bf565b835f5260205f20601f840160051c81019160208510610650575b601f0160051c01905b81811061064557506103db565b5f8155600101610638565b909150819061062f565b01519050898061039e565b5f8581528281209350601f198516905b8181106106b05750908460019594939210610698575b505050811b0190556103b2565b01515f1960f88460031b161c1916905589808061068b565b92936020600181928786015181550195019301610675565b909150835f5260205f20601f840160051c8101916020851061070e575b90601f859493920160051c01905b8181106107005750610388565b5f81558493506001016106f3565b90915081906106e5565b634e487b7160e01b5f52603260045260245ffd5b634e487b7160e01b5f52601160045260245ffd5b346100b25760403660031901126100b2576004356001600160401b0381116100b2576107709036906004016109f5565b6024356001600160401b0381116100b25761078f9036906004016109f5565b9060405181519060208301918083835e60019082019081528190036020019020546001600160a01b031661097f5760019060405160208185518085835e810185815203019020336bffffffffffffffffffffffff60a01b8254161790556020604051809285518091835e81018481520301902001918051926001600160401b0384116102575761081f8154610a6e565b601f811161093a575b50602093601f81116001146108b157916104be918361089295947fc91341bb4dacc2044145ff22abcd7a6b34d4af30157776d66c5b7eeac738a309975f916108a6575b508160011b915f199060031b1c19161790555b604051938493606085526060850190610a4a565b903360208501528382036040850152610a4a565b90508301518861086b565b601f198116825f52855f20905f5b8181106109225750826104be94927fc91341bb4dacc2044145ff22abcd7a6b34d4af30157776d66c5b7eeac738a309986108929897956001941061090a575b5050811b01905561087e565b8501515f1960f88460031b161c1916905588806108fe565b858801518355602097880197600190930192016108bf565b815f5260205f20601f860160051c81019160208710610975575b601f0160051c01905b81811061096a5750610828565b5f815560010161095d565b9091508190610954565b60405162461bcd60e51b81526020600482015260126024820152712730b6b29030b63932b0b23c903a30b5b2b760711b6044820152606490fd5b608081019081106001600160401b0382111761025757604052565b90601f801991011681019081106001600160401b0382111761025757604052565b81601f820112156100b2578035906001600160401b0382116102575760405192610a29601f8401601f1916602001856109d4565b828452602083830101116100b257815f926020809301838601378301015290565b805180835260209291819084018484015e5f828201840152601f01601f1916010190565b90600182811c92168015610a9c575b6020831014610a8857565b634e487b7160e01b5f52602260045260245ffd5b91607f1691610a7d565b9060405191825f825492610ab984610a6e565b8084529360018116908115610b245750600114610ae0575b50610ade925003836109d4565b565b90505f9291925260205f20905f915b818310610b08575050906020610ade928201015f610ad1565b6020919350806001915483858901015201910190918492610aef565b905060209250610ade94915060ff191682840152151560051b8201015f610ad156fea2646970667358221220371d3b4168bbb88cd191457eb2a90e90a19f2ef3e2f0ca7c783345eab6225ba664736f6c634300081c0033",
  "linkReferences": {},
  "deployedLinkReferences": {},
  "immutableReferences": {},
  "inputSourceName": "project/contracts/RafikNS.sol",
  "buildInfoId": "solc-0_8_28-023d2aa032cbe4df3d9b1972cc791efbaf6ccda3"
}